:100000000C9441000C945E000C945E000C945E0015
:100010000C945E000C945E000C945E000C945E00E8
:100020000C945E000C945E000C9460000C945E00D6
:100030000C944B020C94CD030C945E000C94F603CC
:100040000C9422020C945E000C945E000C945E00F2
:100050000C945E006B016F01720175017A017D01E4
:1000600082018701F001D101D501DD01E101E50146
:10007000E901ED01FD01FF010102050207020B028A
:100080000F0211241FBECFE5D8E0DEBFCDBF10E0C8
:10009000A0E6B0E0E2E2FEE002C005900D92A837D3
:1000A000B107D9F720E0A8E7B0E001C01D92A03960
:1000B000B207E1F70E9490030C940F070C94000024
:1000C0001F920F920FB60F9211242F938F939F932D
:1000D000EF93FF93CF93DF931F92CDB7DEB71982D3
:1000E0008981898120918000821788F4E981F0E07C
:1000F000EE0FFF1FE858FF4F808191810196918399
:10010000808389818F5F89838981821778F30F903B
:10011000DF91CF91FF91EF919F918F912F910F9050
:100120000FBE0F901F901895982F907F9BBBD9986A
:10013000DA98DB9AEFECF7E03197F1F700C00000B6
:10014000DB98EFECF7E03197F1F700C00000F0E149
:100150008F9FC00111248BBBD998DA98DB9A8FEC62
:1001600097E00197F1F700C00000DB98EFECF7E0B3
:100170003197F1F700C00000089580EF8ABB8AB381
:100180008E608ABB8FE39CE90197F1F700C0000005
:1001900083E30E94940082E30E94940088E20E941C
:1001A00094008CE00E94940086E00E94940081E01C
:1001B0000E9494000895982F907F9BBBEFECF7E08E
:1001C0003197F1F700C00000D99ADA98DB9AEFEC8A
:1001D000F7E03197F1F700C00000DB98EFECF7E0B3
:1001E0003197F1F700C00000F0E18F9FC0011124AA
:1001F0008BBB8FEC97E00197F1F700C00000D99A14
:10020000DA98DB9AEFECF7E03197F1F700C00000E5
:10021000DB988FEC97E00197F1F700C0000008959C
:100220000F931F93CF93FC018081882359F08F0196
:10023000C0E00E94DB00CF5FF801EC0FF11D808170
:100240008111F7CFCF911F910F910895882329F045
:10025000813011F4605C01C061E0862F80680E94EB
:10026000940008950F931F93CF93DF93CDB7DEB71C
:1002700060970FB6F894DEBF0FBECDBF9F938F93EC
:100280008CE690E09F938F938E010F5F1F4F1F931B
:100290000F930E942504C8010E9410010F900F9037
:1002A0000F900F900F900F9060960FB6F894DEBFEE
:1002B0000FBECDBFDF91CF911F910F910895DC014B
:1002C000EC914E2F50E04830510530F5FA01E65DD3
:1002D000FF4F0C941F0487B187B980E01EC0389A85
:1002E00080E01BC0399A80E018C087B1836087B96D
:1002F00080E013C03A9A80E010C087B1856087B96A
:1003000080E00BC087B1866087B980E006C087B106
:10031000876087B980E001C08FEF11969C9111979B
:10032000913039F018F0923031F009C097B197B997
:1003300007C03E9A05C097B1906C97B901C08EEF87
:1003400012969C911297992319F0913031F009C0BF
:100350009FB790689FBF339A05C0369A349BFECFF3
:1003600001C08DEF13969C911397913009F43D9A3B
:1003700014969C911497992329F0913011F08BEFEA
:1003800001C0359A1596EC9115974E2F50E04830E4
:10039000510528F4FA01EE5CFF4F0C941F048AEF1C
:1003A0001FC090B7906290BF1BC090B7906490BF81
:1003B00093E095BF90E49BBF13C090B7906690BF49
:1003C0000FC090B7906890BF0BC090B7906A90BF75
:1003D00007C090B7906C90BF03C090B7906E90BF6D
:1003E0001696EC914E2F50E0FA013197E730F10567
:1003F000D0F4E65CFF4F0C941F04309A15C0319A7C
:1004000013C096B1936096B90FC0329A0DC096B1E1
:10041000956096B909C096B1966096B905C096B137
:10042000976096B901C089EF379A0895369A089572
:10043000009731F0909382008093810080E00895CE
:100440008CEF08951F920F920FB60F9211242F93E5
:100450003F934F935F936F937F938F939F93AF934C
:10046000BF93EF93FF93E0918100F091820030976A
:1004700009F00995FF91EF91BF91AF919F918F91F5
:100480007F916F915F914F913F912F910F900FBE90
:100490000F901F9018951F920F920FB60F92112474
:1004A0008F9381E0809367008F910F900FBE0F9024
:1004B0001F901895FC018081813051F120F082302D
:1004C00009F44AC06DC08281882319F0813031F06F
:1004D0000AC081818093860080E006C0818180937C
:1004E000860080E001C081E09381992319F091306A
:1004F00021F007C01092830005C091E09093830023
:1005000001C081E09181963008F44BC081E00895EC
:100510008281882319F0813031F00AC08181809373
:10052000870080E006C081818093870080E001C061
:1005300081E09381992319F0913021F007C0109246
:10054000840005C091E09093840001C081E0918116
:10055000963038F181E008958281882319F0813046
:1005600031F00AC081818093880080E006C08181DB
:100570008093880080E001C081E09381992319F085
:10058000913021F007C01092850005C091E0909352
:10059000850001C081E09181983018F081E00895D4
:1005A00081E008958130B9F120F0823009F465C00E
:1005B00095C04F3F51056105710508F091C08091CC
:1005C0008300882319F0813091F08CC083B7886054
:1005D00083BF83B78F7B83BF89B78D7F89BF93B775
:1005E00080918600892B83BF4CBF80E0089583B73C
:1005F000886083BF83B78F7B83BF8FB780688FBFCF
:1006000089B7826089BF93B780918600892B83BFA9
:100610004CBF80E008954115510581E068077105E0
:1006200008F062C05195419551095DBD4CBD809166
:100630008400882319F0813081F058C08EB5887FFE
:100640008EBD9EB580918700892B8EBD88B7846052
:1006500088BF1DBC1CBC80E008958EB5887F8EBD10
:100660009EB580918700892B8EBD89B7846089BF34
:100670008FB780688FBF80E008954F3F51056105B7
:100680007105B0F580918500882319F0813091F0D3
:1006900031C085B5886085BD85B58F7B85BD89B73F
:1006A0008F7789BF95B580918800892B85BD43BD23
:1006B00080E0089585B5886085BD85B58F7B85BD53
:1006C0008FB780688FBF89B7806889BF95B58091E3
:1006D0008800892B85BD43BD80E0089581E00895A1
:1006E00081E0089581E0089581E0089581E0089512
:1006F00081E0089581E0089584B190E090938F00A7
:1007000080938E0025B180918E0090918F00922B66
:1007100090938F0080938E0081E0809389000895EC
:100720000E94BD0080E690E00E945F0188E690E0B4
:100730000E945A028FE690E00E9410016AE080E079
:100740000E94260183E40E94DB008CE793E00E9474
:1007500018020E94160248E75EE160E070E081E066
:100760000E94D202809189008130E1F710928900C5
:1007700067E080E00E94260180918E0090918F00BA
:100780009695879590938F0080938E0080918E0030
:1007900090918F000E943201E5CF1F920F920FB609
:1007A0000F9211242F933F934F935F936F937F93F7
:1007B0008F939F93AF93BF93EF93FF93E0918A0042
:1007C000F0918B00309709F00995FF91EF91BF915F
:1007D000AF919F918F917F916F915F914F913F91D9
:1007E0002F910F900FBE0F901F9018951F920F9290
:1007F0000FB60F9211242F933F934F935F936F93F4
:100800007F938F939F93AF93BF93EF93FF93E09169
:100810008C00F0918D00309709F00995FF91EF91D0
:10082000BF91AF919F918F917F916F915F914F9108
:100830003F912F910F900FBE0F901F901895EE0FC4
:10084000FF1F0590F491E02D0994AEE0B0E0EBE2DB
:10085000F4E00C94E6060D891E8986E08C831A83E9
:1008600009838FEF9FE79E838D83AE01475E5F4FC5
:100870006F89788DCE0101960E944704EF81F8853B
:10088000E00FF11F10822E96E4E00C940207ABE01B
:10089000B0E0EDE4F4E00C94D8066C017B018A0131
:1008A000FC0117821682838181FFCCC1CE010196A3
:1008B0003C01F6019381F70193FD859193FF8191AE
:1008C0007F01882309F4BAC1853239F493FD8591FB
:1008D00093FF81917F01853229F4B60190E00E9457
:1008E0003E06E7CF912C212C312CFFE1F315D8F0F7
:1008F0008B3279F038F4803279F08332A1F4232DF1
:1009000020611DC08D3261F0803369F4232D216098
:1009100016C0832D8260382EE32DE4603E2E2AC05F
:10092000F32DF8601DC037FC2DC020ED280F2A30B4
:1009300040F08E32B9F436FC81C1232D2064322E72
:1009400019C036FE06C08AE0989E200D1124922E12
:1009500011C0EAE02E9E200D1124222EF32DF0620C
:100960003F2E08C08C3621F4832D8068382E02C0BB
:10097000883641F4F70193FD859193FF81917F01C2
:100980008111B3CF982F9F7D9554933028F40C5F3D
:100990001F4F9FE399830DC0833631F0833771F089
:1009A000833509F059C021C0F801808189830E5F29
:1009B0001F4F88248394912C530113C02801F2E027
:1009C0004F0E511CF801A080B18036FE03C0692D86
:1009D00070E002C06FEF7FEFC5010E9433064C014B
:1009E0008201F32DFF773F2E16C0280122E0420E30
:1009F000511CF801A080B18036FE03C0692D70E063
:100A000002C06FEF7FEFC5010E9428064C01F32D55
:100A1000F0683F2E820133FC1BC0822D90E08816C7
:100A20009906B0F4B60180E290E00E943E062A9456
:100A3000F4CFF50137FC859137FE81915F01B60156
:100A400090E00E943E0621102A9421E0821A91082B
:100A50008114910471F7E8C0843611F0893641F5AC
:100A6000F80137FE07C060817181828193810C5F3C
:100A70001F4F08C060817181072E000C880B990BF5
:100A80000E5F1F4FF32DFF763F2E97FF09C0909505
:100A90008095709561957F4F8F4F9F4FF0683F2EE7
:100AA0002AE030E0A3010E947A06882E861845C00D
:100AB000853731F4232D2F7EB22E2AE030E025C079
:100AC000932D997FB92E8F36C1F018F4883579F0BF
:100AD000B5C0803719F0883721F0B0C0E92FE06148
:100AE000BE2EB4FE0DC0FB2DF460BF2E09C034FE37
:100AF0000AC0292F2660B22E06C028E030E005C0CB
:100B000020E130E002C020E132E0F801B7FE07C08A
:100B100060817181828193810C5F1F4F06C060816B
:100B2000718180E090E00E5F1F4FA3010E947A0662
:100B3000882E8618FB2DFF773F2E36FE0DC0232D05
:100B40002E7FA22E891458F434FE0BC032FC09C04B
:100B5000832D8E7EA82E05C0B82CA32C03C0B82CE4
:100B600001C0B92CA4FE0FC0FE01E80DF11D80816B
:100B7000803321F49A2D997EA92E09C0A2FE06C0C9
:100B8000B394B39404C08A2D867809F0B394A3FC7F
:100B900011C0A0FE06C0B21488F4280C922C9B1839
:100BA0000EC0B21460F4B60180E290E00E943E06EE
:100BB000B394F7CFB21418F42B1802C0982C212C40
:100BC000A4FE10C0B60180E390E00E943E06A2FEA3
:100BD00017C0A1FC03C088E790E002C088E590E060
:100BE000B6010CC08A2D867859F0A1FE02C08BE2B6
:100BF00001C080E2A7FC8DE2B60190E00E943E06B3
:100C0000891438F4B60180E390E00E943E069A947D
:100C1000F7CF8A94F301E80DF11D8081B60190E0D1
:100C20000E943E068110F5CF222009F442CEB60183
:100C300080E290E00E943E062A94F6CFF60186817B
:100C4000978102C08FEF9FEF2B96E2E10C94F406A0
:100C5000FC010590615070400110D8F78095909587
:100C60008E0F9F1F0895FC0161507040019001108C
:100C7000D8F7809590958E0F9F1F08950F931F931F
:100C8000CF93DF93FB01238121FD03C08FEF9FEF03
:100C90002CC022FF16C0468157812481358142171E
:100CA000530744F4A081B1819D012F5F3F4F3183F1
:100CB00020838C93268137812F5F3F4F3783268394
:100CC00014C08B01EC01FB010084F185E02D099536
:100CD000892BE1F6D80116968D919C911797019674
:100CE00017969C938E931697CE01DF91CF911F910B
:100CF0000F910895FA01AA27283051F1203181F18E
:100D0000E8946F936E7F6E5F7F4F8F4F9F4FAF4F13
:100D1000B1E03ED0B4E03CD0670F781F891F9A1F26
:100D2000A11D680F791F8A1F911DA11D6A0F711DDA
:100D3000811D911DA11D20D009F468943F912AE0E6
:100D4000269F11243019305D3193DEF6CF010895CE
:100D5000462F4770405D4193B3E00FD0C9F7F6CFFF
:100D6000462F4F70405D4A3318F0495D31FD4052C7
:100D7000419302D0A9F7EACFB4E0A695979587955D
:100D800077956795BA95C9F700976105710508953C
:100D90009B01AC010A2E06945795479537952795E8
:100DA000BA95C9F7620F731F841F951FA01D089580
:100DB0002F923F924F925F926F927F928F929F926B
:100DC000AF92BF92CF92DF92EF92FF920F931F9359
:100DD000CF93DF93CDB7DEB7CA1BDB0B0FB6F8940A
:100DE000DEBF0FBECDBF09942A88398848885F844A
:100DF0006E847D848C849B84AA84B984C884DF80BB
:100E0000EE80FD800C811B81AA81B981CE0FD11D9E
:100E10000FB6F894DEBF0FBECDBFED010895F89474
:020E2000FFCF02
:100E220000010000010606010105000125640054CD
:080E3200656D70203D200000F9
:00000001FF
